{
  "contractName": "DeviceContractRegistry",
  "abi": [
    {
      "inputs": [
        {
          "internalType": "bytes32",
          "name": "",
          "type": "bytes32"
        }
      ],
      "name": "registeredIPHashes",
      "outputs": [
        {
          "internalType": "bool",
          "name": "",
          "type": "bool"
        }
      ],
      "stateMutability": "view",
      "type": "function",
      "constant": true
    },
    {
      "inputs": [
        {
          "internalType": "bytes32",
          "name": "ipHash",
          "type": "bytes32"
        }
      ],
      "name": "storeIPHash",
      "outputs": [],
      "stateMutability": "nonpayable",
      "type": "function"
    },
    {
      "inputs": [
        {
          "internalType": "bytes32",
          "name": "ipHash",
          "type": "bytes32"
        }
      ],
      "name": "verifyIPHash",
      "outputs": [
        {
          "internalType": "bool",
          "name": "",
          "type": "bool"
        }
      ],
      "stateMutability": "view",
      "type": "function",
      "constant": true
    }
  ],
  "bytecode": "0x608060405234801561001057600080fd5b506102d5806100206000396000f3fe608060405234801561001057600080fd5b50600436106100415760003560e01c80631b9bf77614610046578063300df859146100765780639cc2123014610092575b600080fd5b610060600480360381019061005b91906101ae565b6100c2565b60405161006d9190610226565b60405180910390f35b610090600480360381019061008b91906101ae565b6100eb565b005b6100ac60048036038101906100a791906101ae565b610179565b6040516100b99190610226565b60405180910390f35b600080600083815260200190815260200160002060009054906101000a900460ff169050919050565b60008082815260200190815260200160002060009054906101000a900460ff161561014b576040517f08c379a000000000000000000000000000000000000000000000000000000000815260040161014290610241565b60405180910390fd5b600160008083815260200190815260200160002060006101000a81548160ff02191690831515021790555050565b60006020528060005260406000206000915054906101000a900460ff1681565b6000813590506101a881610288565b92915050565b6000602082840312156101c057600080fd5b60006101ce84828501610199565b91505092915050565b6101e081610272565b82525050565b60006101f3601583610261565b91507f495020616c7265616479207265676973746572656400000000000000000000006000830152602082019050919050565b600060208201905061023b60008301846101d7565b92915050565b6000602082019050818103600083015261025a816101e6565b9050919050565b600082825260208201905092915050565b60008115159050919050565b6000819050919050565b6102918161027e565b811461029c57600080fd5b5056fea2646970667358221220e3729b2793688f6b3782a3a5b2161d512b958685d31dc338b6f88629a4fe1af964736f6c63430008000033",
  "immutableReferences": {},
  "source": "// SPDX-License-Identifier: MIT\npragma solidity ^0.8.0;\n\ncontract DeviceContractRegistry {\n    mapping(bytes32 => bool) public registeredIPHashes;\n\n    // Function to store a hash of the IP address\n    function storeIPHash(bytes32 ipHash) public {\n        require(!registeredIPHashes[ipHash], \"IP already registered\");\n        registeredIPHashes[ipHash] = true;\n    }\n\n    // Function to verify if an IP address hash is registered\n    function verifyIPHash(bytes32 ipHash) public view returns (bool) {\n        return registeredIPHashes[ipHash];\n    }\n}\n",
  "sourcePath": "/Users/mariakhan/Desktop/whitewash_Repo/White_Wash_Attack/smartId-contracts/contracts/DeviceContractRegistry.sol",
  "compiler": {
    "name": "solc",
    "version": "0.8.0+commit.c7dfd78e.Emscripten.clang"
  },
  "schemaVersion": "3.4.16",
  "updatedAt": "2025-07-09T17:44:23.301Z",
  "networkType": "ethereum",
  "devdoc": {
    "kind": "dev",
    "methods": {},
    "version": 1
  },
  "userdoc": {
    "kind": "user",
    "methods": {},
    "version": 1
  }
}