{
  "contractName": "SmartIdentity",
  "abi": [
    {
      "anonymous": false,
      "inputs": [
        {
          "indexed": true,
          "internalType": "bytes32",
          "name": "userHash",
          "type": "bytes32"
        },
        {
          "indexed": false,
          "internalType": "uint256",
          "name": "deviationCount",
          "type": "uint256"
        },
        {
          "indexed": false,
          "internalType": "string",
          "name": "reason",
          "type": "string"
        },
        {
          "indexed": false,
          "internalType": "string",
          "name": "banType",
          "type": "string"
        }
      ],
      "name": "MaliciousUserDetected",
      "type": "event"
    },
    {
      "anonymous": false,
      "inputs": [
        {
          "indexed": true,
          "internalType": "bytes32",
          "name": "userHash",
          "type": "bytes32"
        },
        {
          "indexed": false,
          "internalType": "string",
          "name": "reason",
          "type": "string"
        },
        {
          "indexed": false,
          "internalType": "string",
          "name": "banType",
          "type": "string"
        }
      ],
      "name": "UserPermanentlyBanned",
      "type": "event"
    },
    {
      "inputs": [
        {
          "internalType": "uint256",
          "name": "",
          "type": "uint256"
        }
      ],
      "name": "allBlacklistedIPHashes",
      "outputs": [
        {
          "internalType": "bytes32",
          "name": "",
          "type": "bytes32"
        }
      ],
      "stateMutability": "view",
      "type": "function",
      "constant": true
    },
    {
      "inputs": [
        {
          "internalType": "uint256",
          "name": "",
          "type": "uint256"
        }
      ],
      "name": "allMaliciousUserHashes",
      "outputs": [
        {
          "internalType": "bytes32",
          "name": "",
          "type": "bytes32"
        }
      ],
      "stateMutability": "view",
      "type": "function",
      "constant": true
    },
    {
      "inputs": [
        {
          "internalType": "bytes32",
          "name": "",
          "type": "bytes32"
        }
      ],
      "name": "blacklistedIPs",
      "outputs": [
        {
          "internalType": "bool",
          "name": "",
          "type": "bool"
        }
      ],
      "stateMutability": "view",
      "type": "function",
      "constant": true
    },
    {
      "inputs": [
        {
          "internalType": "bytes32",
          "name": "",
          "type": "bytes32"
        }
      ],
      "name": "devices",
      "outputs": [
        {
          "internalType": "bytes32",
          "name": "ipHash",
          "type": "bytes32"
        },
        {
          "internalType": "bytes32",
          "name": "imeiHash",
          "type": "bytes32"
        },
        {
          "internalType": "bytes32",
          "name": "macHash",
          "type": "bytes32"
        },
        {
          "internalType": "bool",
          "name": "isBlacklisted",
          "type": "bool"
        }
      ],
      "stateMutability": "view",
      "type": "function",
      "constant": true
    },
    {
      "inputs": [
        {
          "internalType": "bytes32",
          "name": "",
          "type": "bytes32"
        }
      ],
      "name": "maliciousUsers",
      "outputs": [
        {
          "internalType": "bool",
          "name": "isBlacklisted",
          "type": "bool"
        },
        {
          "internalType": "uint256",
          "name": "deviationCount",
          "type": "uint256"
        },
        {
          "internalType": "uint256",
          "name": "lastDeviationTime",
          "type": "uint256"
        },
        {
          "internalType": "string",
          "name": "reason",
          "type": "string"
        },
        {
          "internalType": "string",
          "name": "banType",
          "type": "string"
        }
      ],
      "stateMutability": "view",
      "type": "function",
      "constant": true
    },
    {
      "inputs": [
        {
          "internalType": "bytes32",
          "name": "ipHash",
          "type": "bytes32"
        },
        {
          "internalType": "bytes32",
          "name": "imeiHash",
          "type": "bytes32"
        },
        {
          "internalType": "bytes32",
          "name": "macHash",
          "type": "bytes32"
        }
      ],
      "name": "registerDevice",
      "outputs": [],
      "stateMutability": "nonpayable",
      "type": "function"
    },
    {
      "inputs": [
        {
          "internalType": "bytes32",
          "name": "imeiHash",
          "type": "bytes32"
        }
      ],
      "name": "blacklistDevice",
      "outputs": [],
      "stateMutability": "nonpayable",
      "type": "function"
    },
    {
      "inputs": [
        {
          "internalType": "bytes32",
          "name": "imeiHash",
          "type": "bytes32"
        }
      ],
      "name": "isDeviceBlacklisted",
      "outputs": [
        {
          "internalType": "bool",
          "name": "",
          "type": "bool"
        }
      ],
      "stateMutability": "view",
      "type": "function",
      "constant": true
    },
    {
      "inputs": [
        {
          "internalType": "bytes32",
          "name": "ipHash",
          "type": "bytes32"
        }
      ],
      "name": "isIPBlacklisted",
      "outputs": [
        {
          "internalType": "bool",
          "name": "",
          "type": "bool"
        }
      ],
      "stateMutability": "view",
      "type": "function",
      "constant": true
    },
    {
      "inputs": [],
      "name": "getAllBlacklistedIPs",
      "outputs": [
        {
          "internalType": "bytes32[]",
          "name": "",
          "type": "bytes32[]"
        }
      ],
      "stateMutability": "view",
      "type": "function",
      "constant": true
    },
    {
      "inputs": [
        {
          "internalType": "bytes32",
          "name": "imeiHash",
          "type": "bytes32"
        }
      ],
      "name": "getDeviceDetails",
      "outputs": [
        {
          "internalType": "bytes32",
          "name": "",
          "type": "bytes32"
        },
        {
          "internalType": "bytes32",
          "name": "",
          "type": "bytes32"
        },
        {
          "internalType": "bytes32",
          "name": "",
          "type": "bytes32"
        },
        {
          "internalType": "bool",
          "name": "",
          "type": "bool"
        }
      ],
      "stateMutability": "view",
      "type": "function",
      "constant": true
    },
    {
      "inputs": [
        {
          "internalType": "bytes32",
          "name": "userHash",
          "type": "bytes32"
        },
        {
          "internalType": "uint256",
          "name": "deviationCount",
          "type": "uint256"
        },
        {
          "internalType": "string",
          "name": "reason",
          "type": "string"
        }
      ],
      "name": "flagMaliciousUser",
      "outputs": [],
      "stateMutability": "nonpayable",
      "type": "function"
    },
    {
      "inputs": [
        {
          "internalType": "bytes32",
          "name": "userHash",
          "type": "bytes32"
        },
        {
          "internalType": "string",
          "name": "reason",
          "type": "string"
        },
        {
          "internalType": "string",
          "name": "banType",
          "type": "string"
        }
      ],
      "name": "banUserImmediately",
      "outputs": [],
      "stateMutability": "nonpayable",
      "type": "function"
    },
    {
      "inputs": [
        {
          "internalType": "bytes32",
          "name": "userHash",
          "type": "bytes32"
        }
      ],
      "name": "isMaliciousUser",
      "outputs": [
        {
          "internalType": "bool",
          "name": "",
          "type": "bool"
        }
      ],
      "stateMutability": "view",
      "type": "function",
      "constant": true
    },
    {
      "inputs": [
        {
          "internalType": "bytes32",
          "name": "userHash",
          "type": "bytes32"
        }
      ],
      "name": "getMaliciousUserDetails",
      "outputs": [
        {
          "internalType": "bool",
          "name": "isBlacklisted",
          "type": "bool"
        },
        {
          "internalType": "uint256",
          "name": "deviationCount",
          "type": "uint256"
        },
        {
          "internalType": "uint256",
          "name": "lastDeviationTime",
          "type": "uint256"
        },
        {
          "internalType": "string",
          "name": "reason",
          "type": "string"
        },
        {
          "internalType": "string",
          "name": "banType",
          "type": "string"
        }
      ],
      "stateMutability": "view",
      "type": "function",
      "constant": true
    },
    {
      "inputs": [],
      "name": "getAllMaliciousUsers",
      "outputs": [
        {
          "internalType": "bytes32[]",
          "name": "",
          "type": "bytes32[]"
        }
      ],
      "stateMutability": "view",
      "type": "function",
      "constant": true
    },
    {
      "inputs": [],
      "name": "getMaliciousUserCount",
      "outputs": [
        {
          "internalType": "uint256",
          "name": "",
          "type": "uint256"
        }
      ],
      "stateMutability": "view",
      "type": "function",
      "constant": true
    },
    {
      "inputs": [
        {
          "internalType": "string",
          "name": "banType",
          "type": "string"
        }
      ],
      "name": "getUsersByBanType",
      "outputs": [
        {
          "internalType": "bytes32[]",
          "name": "",
          "type": "bytes32[]"
        }
      ],
      "stateMutability": "view",
      "type": "function",
      "constant": true
    }
  ],
  "bytecode": "0x608060405234801561001057600080fd5b50611c7e806100206000396000f3fe608060405234801561001057600080fd5b50600436106101165760003560e01c80637900438b116100a2578063c5c400de11610071578063c5c400de1461031b578063cb2d336e1461034e578063e67c268a1461037e578063f2b5822f146103b2578063f8ef515f146103d057610116565b80637900438b146102955780638d5520a1146102b1578063a89ad686146102cd578063b1799eed146102fd57610116565b8063276bd492116100e9578063276bd492146101b7578063295b670f146101e75780633962113a1461021757806347213b31146102475780636525d9a01461026557610116565b806308eef37c1461011b578063091f1bff1461014f5780631be3783f1461017f5780631d8fc5241461019b575b600080fd5b6101356004803603810190610130919061130a565b610403565b6040516101469594939291906117a7565b60405180910390f35b6101696004803603810190610164919061130a565b6105ad565b604051610176919061178c565b60405180910390f35b61019960048036038101906101949190611382565b6105cd565b005b6101b560048036038101906101b0919061130a565b610701565b005b6101d160048036038101906101cc9190611468565b610822565b6040516101de919061176a565b60405180910390f35b61020160048036038101906101fc91906114a9565b610aec565b60405161020e9190611808565b60405180910390f35b610231600480360381019061022c919061130a565b610b10565b60405161023e919061178c565b60405180910390f35b61024f610b3d565b60405161025c9190611959565b60405180910390f35b61027f600480360381019061027a91906114a9565b610b4a565b60405161028c9190611808565b60405180910390f35b6102af60048036038101906102aa9190611333565b610b6e565b005b6102cb60048036038101906102c69190611401565b610c44565b005b6102e760048036038101906102e2919061130a565b610db3565b6040516102f4919061178c565b60405180910390f35b610305610ddd565b604051610312919061176a565b60405180910390f35b6103356004803603810190610330919061130a565b610e35565b6040516103459493929190611823565b60405180910390f35b6103686004803603810190610363919061130a565b610e72565b604051610375919061178c565b60405180910390f35b6103986004803603810190610393919061130a565b610ef9565b6040516103a99594939291906117a7565b60405180910390f35b6103ba61104c565b6040516103c7919061176a565b60405180910390f35b6103ea60048036038101906103e5919061130a565b6110a4565b6040516103fa9493929190611823565b60405180910390f35b60008060006060806000600360008881526020019081526020016000206040518060a00160405290816000820160009054906101000a900460ff16151515158152602001600182015481526020016002820154815260200160038201805461046a90611b01565b80601f016020809104026020016040519081016040528092919081815260200182805461049690611b01565b80156104e35780601f106104b8576101008083540402835291602001916104e3565b820191906000526020600020905b8154815290600101906020018083116104c657829003601f168201915b505050505081526020016004820180546104fc90611b01565b80601f016020809104026020016040519081016040528092919081815260200182805461052890611b01565b80156105755780601f1061054a57610100808354040283529160200191610575565b820191906000526020600020905b81548152906001019060200180831161055857829003601f168201915b505050505081525050905080600001518160200151826040015183606001518460800151955095509550955095505091939590929450565b60016020528060005260406000206000915054906101000a900460ff1681565b6040518060a0016040528060011515815260200160018152602001428152602001838152602001828152506003600085815260200190815260200160002060008201518160000160006101000a81548160ff0219169083151502179055506020820151816001015560408201518160020155606082015181600301908051906020019061065b9291906111d5565b5060808201518160040190805190602001906106789291906111d5565b5090505061068583611128565b827f59b54c262656288dbf4176e6691883d92436287776ab086030e39f321c29cb6783836040516106b79291906118ad565b60405180910390a2827f14782a6ac8993e31c8242a03d98e5b7a6e2772dfe031f7c4d5b4d6fd122a2662600184846040516106f493929190611868565b60405180910390a2505050565b6000801b60008083815260200190815260200160002060010154141561075c576040517f08c379a000000000000000000000000000000000000000000000000000000000815260040161075390611919565b60405180910390fd5b600160008083815260200190815260200160002060030160006101000a81548160ff02191690831515021790555060008060008381526020019081526020016000206000015490506001600082815260200190815260200160002060009054906101000a900460ff1661081e57600180600083815260200190815260200160002060006101000a81548160ff02191690831515021790555060028190806001815401808255809150506001900390600052602060002001600090919091909150555b5050565b6060600060048054905067ffffffffffffffff81111561086b577f4e487b7100000000000000000000000000000000000000000000000000000000600052604160045260246000fd5b6040519080825280602002602001820160405280156108995781602001602082028036833780820191505090505b5090506000805b6004805490508110156109c8576000600482815481106108e9577f4e487b7100000000000000000000000000000000000000000000000000000000600052603260045260246000fd5b9060005260206000200154905085604051602001610907919061173c565b60405160208183030381529060405280519060200120600360008381526020019081526020016000206004016040516020016109439190611753565b6040516020818303038152906040528051906020012014156109b45780848481518110610999577f4e487b7100000000000000000000000000000000000000000000000000000000600052603260045260246000fd5b60200260200101818152505082806109b090611b33565b9350505b5080806109c090611b33565b9150506108a0565b5060008167ffffffffffffffff811115610a0b577f4e487b7100000000000000000000000000000000000000000000000000000000600052604160045260246000fd5b604051908082528060200260200182016040528015610a395781602001602082028036833780820191505090505b50905060005b82811015610ae057838181518110610a80577f4e487b7100000000000000000000000000000000000000000000000000000000600052603260045260246000fd5b6020026020010151828281518110610ac1577f4e487b7100000000000000000000000000000000000000000000000000000000600052603260045260246000fd5b6020026020010181815250508080610ad890611b33565b915050610a3f565b50809350505050919050565b60028181548110610afc57600080fd5b906000526020600020016000915090505481565b60006003600083815260200190815260200160002060000160009054906101000a900460ff169050919050565b6000600480549050905090565b60048181548110610b5a57600080fd5b906000526020600020016000915090505481565b6000801b6000808481526020019081526020016000206001015414610bc8576040517f08c379a0000000000000000000000000000000000000000000000000000000008152600401610bbf90611939565b60405180910390fd5b60405180608001604052808481526020018381526020018281526020016000151581525060008084815260200190815260200160002060008201518160000155602082015181600101556040820151816002015560608201518160030160006101000a81548160ff021916908315150217905550905050505050565b6040518060a001604052806003841015151581526020018381526020014281526020018281526020016040518060400160405280601281526020017f6d616c6963696f75735f6265686176696f7200000000000000000000000000008152508152506003600085815260200190815260200160002060008201518160000160006101000a81548160ff02191690831515021790555060208201518160010155604082015181600201556060820151816003019080519060200190610d099291906111d5565b506080820151816004019080519060200190610d269291906111d5565b5090505060038210610d7457610d3b83611128565b827f59b54c262656288dbf4176e6691883d92436287776ab086030e39f321c29cb6782604051610d6b91906118e4565b60405180910390a25b827f14782a6ac8993e31c8242a03d98e5b7a6e2772dfe031f7c4d5b4d6fd122a26628383604051610da6929190611974565b60405180910390a2505050565b60006001600083815260200190815260200160002060009054906101000a900460ff169050919050565b60606004805480602002602001604051908101604052809291908181526020018280548015610e2b57602002820191906000526020600020905b815481526020019060010190808311610e17575b5050505050905090565b60006020528060005260406000206000915090508060000154908060010154908060020154908060030160009054906101000a900460ff16905084565b60008060001b600080848152602001908152602001600020600101541415610ecf576040517f08c379a0000000000000000000000000000000000000000000000000000000008152600401610ec690611919565b60405180910390fd5b60008083815260200190815260200160002060030160009054906101000a900460ff169050919050565b60036020528060005260406000206000915090508060000160009054906101000a900460ff1690806001015490806002015490806003018054610f3b90611b01565b80601f0160208091040260200160405190810160405280929190818152602001828054610f6790611b01565b8015610fb45780601f10610f8957610100808354040283529160200191610fb4565b820191906000526020600020905b815481529060010190602001808311610f9757829003601f168201915b505050505090806004018054610fc990611b01565b80601f0160208091040260200160405190810160405280929190818152602001828054610ff590611b01565b80156110425780601f1061101757610100808354040283529160200191611042565b820191906000526020600020905b81548152906001019060200180831161102557829003601f168201915b5050505050905085565b6060600280548060200260200160405190810160405280929190818152602001828054801561109a57602002820191906000526020600020905b815481526020019060010190808311611086575b5050505050905090565b60008060008060008060008781526020019081526020016000206040518060800160405290816000820154815260200160018201548152602001600282015481526020016003820160009054906101000a900460ff161515151581525050905080600001518160200151826040015183606001519450945094509450509193509193565b6000805b6004805490508110156111a1578260048281548110611174577f4e487b7100000000000000000000000000000000000000000000000000000000600052603260045260246000fd5b9060005260206000200154141561118e57600191506111a1565b808061119990611b33565b91505061112c565b50806111d15760048290806001815401808255809150506001900390600052602060002001600090919091909150555b5050565b8280546111e190611b01565b90600052602060002090601f016020900481019282611203576000855561124a565b82601f1061121c57805160ff191683800117855561124a565b8280016001018555821561124a579182015b8281111561124957825182559160200191906001019061122e565b5b509050611257919061125b565b5090565b5b8082111561127457600081600090555060010161125c565b5090565b600061128b611286846119e8565b6119b7565b9050828152602081018484840111156112a357600080fd5b6112ae848285611abf565b509392505050565b6000813590506112c581611c1a565b92915050565b600082601f8301126112dc57600080fd5b81356112ec848260208601611278565b91505092915050565b60008135905061130481611c31565b92915050565b60006020828403121561131c57600080fd5b600061132a848285016112b6565b91505092915050565b60008060006060848603121561134857600080fd5b6000611356868287016112b6565b9350506020611367868287016112b6565b9250506040611378868287016112b6565b9150509250925092565b60008060006060848603121561139757600080fd5b60006113a5868287016112b6565b935050602084013567ffffffffffffffff8111156113c257600080fd5b6113ce868287016112cb565b925050604084013567ffffffffffffffff8111156113eb57600080fd5b6113f7868287016112cb565b9150509250925092565b60008060006060848603121561141657600080fd5b6000611424868287016112b6565b9350506020611435868287016112f5565b925050604084013567ffffffffffffffff81111561145257600080fd5b61145e868287016112cb565b9150509250925092565b60006020828403121561147a57600080fd5b600082013567ffffffffffffffff81111561149457600080fd5b6114a0848285016112cb565b91505092915050565b6000602082840312156114bb57600080fd5b60006114c9848285016112f5565b91505092915050565b60006114de8383611557565b60208301905092915050565b60006114f582611a3d565b6114ff8185611a60565b935061150a83611a18565b8060005b8381101561153b57815161152288826114d2565b975061152d83611a53565b92505060018101905061150e565b5085935050505092915050565b61155181611a8d565b82525050565b61156081611a99565b82525050565b61156f81611a99565b82525050565b61157e81611aad565b82525050565b600061158f82611a48565b6115998185611a71565b93506115a9818560208601611ace565b6115b281611c09565b840191505092915050565b60006115c882611a48565b6115d28185611a82565b93506115e2818560208601611ace565b80840191505092915050565b600081546115fb81611b01565b6116058186611a82565b94506001821660008114611620576001811461163157611664565b60ff19831686528186019350611664565b61163a85611a28565b60005b8381101561165c5781548189015260018201915060208101905061163d565b838801955050505b50505092915050565b600061167a601083611a71565b91507f446576696365206e6f7420666f756e64000000000000000000000000000000006000830152602082019050919050565b60006116ba601283611a71565b91507f6d616c6963696f75735f6265686176696f7200000000000000000000000000006000830152602082019050919050565b60006116fa601983611a71565b91507f44657669636520616c72656164792072656769737465726564000000000000006000830152602082019050919050565b61173681611aa3565b82525050565b600061174882846115bd565b915081905092915050565b600061175f82846115ee565b915081905092915050565b6000602082019050818103600083015261178481846114ea565b905092915050565b60006020820190506117a16000830184611548565b92915050565b600060a0820190506117bc6000830188611548565b6117c9602083018761172d565b6117d6604083018661172d565b81810360608301526117e88185611584565b905081810360808301526117fc8184611584565b90509695505050505050565b600060208201905061181d6000830184611566565b92915050565b60006080820190506118386000830187611566565b6118456020830186611566565b6118526040830185611566565b61185f6060830184611548565b95945050505050565b600060608201905061187d6000830186611575565b818103602083015261188f8185611584565b905081810360408301526118a38184611584565b9050949350505050565b600060408201905081810360008301526118c78185611584565b905081810360208301526118db8184611584565b90509392505050565b600060408201905081810360008301526118fe8184611584565b90508181036020830152611911816116ad565b905092915050565b600060208201905081810360008301526119328161166d565b9050919050565b60006020820190508181036000830152611952816116ed565b9050919050565b600060208201905061196e600083018461172d565b92915050565b6000606082019050611989600083018561172d565b818103602083015261199b8184611584565b905081810360408301526119ae816116ad565b90509392505050565b6000604051905081810181811067ffffffffffffffff821117156119de576119dd611bda565b5b8060405250919050565b600067ffffffffffffffff821115611a0357611a02611bda565b5b601f19601f8301169050602081019050919050565b6000819050602082019050919050565b60008190508160005260206000209050919050565b600081519050919050565b600081519050919050565b6000602082019050919050565b600082825260208201905092915050565b600082825260208201905092915050565b600081905092915050565b60008115159050919050565b6000819050919050565b6000819050919050565b6000611ab882611aa3565b9050919050565b82818337600083830152505050565b60005b83811015611aec578082015181840152602081019050611ad1565b83811115611afb576000848401525b50505050565b60006002820490506001821680611b1957607f821691505b60208210811415611b2d57611b2c611bab565b5b50919050565b6000611b3e82611aa3565b91507fffffffffffffffffffffffffffffffffffffffffffffffffffffffffffffffff821415611b7157611b70611b7c565b5b600182019050919050565b7f4e487b7100000000000000000000000000000000000000000000000000000000600052601160045260246000fd5b7f4e487b7100000000000000000000000000000000000000000000000000000000600052602260045260246000fd5b7f4e487b7100000000000000000000000000000000000000000000000000000000600052604160045260246000fd5b6000601f19601f8301169050919050565b611c2381611a99565b8114611c2e57600080fd5b50565b611c3a81611aa3565b8114611c4557600080fd5b5056fea264697066735822122039f0fa7c001f14f2bda7dd06a250d74c8c94a5f2a5a0e48fc035b57e81042c2964736f6c63430008000033",
  "immutableReferences": {},
  "source": "// SPDX-License-Identifier: MIT\n\npragma solidity ^0.8.0;\n\ncontract SmartIdentity {\n    struct Device {\n        bytes32 ipHash;\n        bytes32 imeiHash;\n        bytes32 macHash;\n        bool isBlacklisted;\n    }\n\n    // Malicious user data structure\n    struct MaliciousData {\n        bool isBlacklisted;\n        uint256 deviationCount;\n        uint256 lastDeviationTime;\n        string reason;\n        string banType; // NEW: Track ban type (malicious_behavior, poor_performance)\n    }\n\n    // Mapping to store devices based on their IMEI hash\n    mapping(bytes32 => Device) public devices;\n\n    // Mapping to store blacklisted IPs\n    mapping(bytes32 => bool) public blacklistedIPs;\n\n    // Array to keep track of all blacklisted IPs (hashes)\n    bytes32[] public allBlacklistedIPHashes;\n\n    // Mapping to store malicious users\n    mapping(bytes32 => MaliciousData) public maliciousUsers;\n\n    // Array to keep track of all malicious user hashes\n    bytes32[] public allMaliciousUserHashes;\n\n    // Events for malicious user detection\n    event MaliciousUserDetected(\n        bytes32 indexed userHash,\n        uint256 deviationCount,\n        string reason,\n        string banType\n    );\n\n    event UserPermanentlyBanned(\n        bytes32 indexed userHash,\n        string reason,\n        string banType\n    );\n\n    // Function to register a device with IP, IMEI, and MAC hash\n    function registerDevice(bytes32 ipHash, bytes32 imeiHash, bytes32 macHash) public {\n        require(devices[imeiHash].imeiHash == 0, \"Device already registered\");\n\n        devices[imeiHash] = Device({\n            ipHash: ipHash,\n            imeiHash: imeiHash,\n            macHash: macHash,\n            isBlacklisted: false\n        });\n    }\n\n    // Function to blacklist a device by its IMEI hash\n    function blacklistDevice(bytes32 imeiHash) public {\n        require(devices[imeiHash].imeiHash != 0, \"Device not found\");\n\n        devices[imeiHash].isBlacklisted = true;\n        \n        // Add the IP to the blacklisted IPs mapping and array if not already present\n        bytes32 ipHash = devices[imeiHash].ipHash;\n        if (!blacklistedIPs[ipHash]) {\n            blacklistedIPs[ipHash] = true;\n            allBlacklistedIPHashes.push(ipHash);\n        }\n    }\n\n    // Function to check if a device is blacklisted\n    function isDeviceBlacklisted(bytes32 imeiHash) public view returns (bool) {\n        require(devices[imeiHash].imeiHash != 0, \"Device not found\");\n        return devices[imeiHash].isBlacklisted;\n    }\n\n    // Function to verify if an IP is blacklisted\n    function isIPBlacklisted(bytes32 ipHash) public view returns (bool) {\n        return blacklistedIPs[ipHash];\n    }\n\n    // Function to retrieve all blacklisted IPs\n    function getAllBlacklistedIPs() public view returns (bytes32[] memory) {\n        return allBlacklistedIPHashes;\n    }\n\n    // Function to get device details\n    function getDeviceDetails(bytes32 imeiHash) public view returns (bytes32, bytes32, bytes32, bool) {\n        Device memory device = devices[imeiHash];\n        return (device.ipHash, device.imeiHash, device.macHash, device.isBlacklisted);\n    }\n\n    // EXISTING: Function to flag a user as malicious (for deviation-based bans)\n    function flagMaliciousUser(\n        bytes32 userHash,\n        uint256 deviationCount,\n        string memory reason\n    ) external {\n        // Update malicious user data\n        maliciousUsers[userHash] = MaliciousData({\n            isBlacklisted: deviationCount >= 3, // Keep original logic for malicious behavior\n            deviationCount: deviationCount,\n            lastDeviationTime: block.timestamp,\n            reason: reason,\n            banType: \"malicious_behavior\"\n        });\n\n        // Add to malicious users array if banned\n        if (deviationCount >= 3) {\n            _addToMaliciousArray(userHash);\n            emit UserPermanentlyBanned(userHash, reason, \"malicious_behavior\");\n        }\n        \n        emit MaliciousUserDetected(userHash, deviationCount, reason, \"malicious_behavior\");\n    }\n\n    // NEW: Function to immediately ban a user (for poor performance, etc.)\n    function banUserImmediately(\n        bytes32 userHash,\n        string memory reason,\n        string memory banType\n    ) external {\n        // Immediately ban the user regardless of deviation count\n        maliciousUsers[userHash] = MaliciousData({\n            isBlacklisted: true, // Always true for immediate bans\n            deviationCount: 1, // Set to 1 to indicate this is not deviation-based\n            lastDeviationTime: block.timestamp,\n            reason: reason,\n            banType: banType\n        });\n\n        // Add to malicious users array\n        _addToMaliciousArray(userHash);\n        \n        emit UserPermanentlyBanned(userHash, reason, banType);\n        emit MaliciousUserDetected(userHash, 1, reason, banType);\n    }\n\n    // HELPER: Internal function to add user to malicious array (avoid duplicates)\n    function _addToMaliciousArray(bytes32 userHash) internal {\n        bool alreadyExists = false;\n        for (uint i = 0; i < allMaliciousUserHashes.length; i++) {\n            if (allMaliciousUserHashes[i] == userHash) {\n                alreadyExists = true;\n                break;\n            }\n        }\n        if (!alreadyExists) {\n            allMaliciousUserHashes.push(userHash);\n        }\n    }\n\n    // Function to check if a user is malicious\n    function isMaliciousUser(bytes32 userHash) external view returns (bool) {\n        return maliciousUsers[userHash].isBlacklisted;\n    }\n\n    // UPDATED: Function to get malicious user details (now includes ban type)\n    function getMaliciousUserDetails(bytes32 userHash) external view returns (\n        bool isBlacklisted,\n        uint256 deviationCount,\n        uint256 lastDeviationTime,\n        string memory reason,\n        string memory banType\n    ) {\n        MaliciousData memory userData = maliciousUsers[userHash];\n        return (\n            userData.isBlacklisted,\n            userData.deviationCount,\n            userData.lastDeviationTime,\n            userData.reason,\n            userData.banType\n        );\n    }\n\n    // Function to get all malicious users\n    function getAllMaliciousUsers() external view returns (bytes32[] memory) {\n        return allMaliciousUserHashes;\n    }\n\n    // Function to get total count of malicious users\n    function getMaliciousUserCount() external view returns (uint256) {\n        return allMaliciousUserHashes.length;\n    }\n\n    // NEW: Function to get users by ban type\n    function getUsersByBanType(string memory banType) external view returns (bytes32[] memory) {\n        bytes32[] memory result = new bytes32[](allMaliciousUserHashes.length);\n        uint256 count = 0;\n        \n        for (uint256 i = 0; i < allMaliciousUserHashes.length; i++) {\n            bytes32 userHash = allMaliciousUserHashes[i];\n            if (keccak256(abi.encodePacked(maliciousUsers[userHash].banType)) == keccak256(abi.encodePacked(banType))) {\n                result[count] = userHash;\n                count++;\n            }\n        }\n        \n        // Resize array to actual count\n        bytes32[] memory finalResult = new bytes32[](count);\n        for (uint256 i = 0; i < count; i++) {\n            finalResult[i] = result[i];\n        }\n        \n        return finalResult;\n    }\n}",
  "sourcePath": "/Users/mariakhan/Desktop/whitewash_Repo/White_Wash_Attack/smartId-contracts/contracts/SmartIdentity.sol",
  "compiler": {
    "name": "solc",
    "version": "0.8.0+commit.c7dfd78e.Emscripten.clang"
  },
  "schemaVersion": "3.4.16",
  "updatedAt": "2025-07-09T17:44:23.213Z",
  "networkType": "ethereum",
  "devdoc": {
    "kind": "dev",
    "methods": {},
    "version": 1
  },
  "userdoc": {
    "kind": "user",
    "methods": {},
    "version": 1
  }
}