{
  "contractName": "SmartIdentity",
  "abi": [
    {
      "inputs": [
        {
          "internalType": "uint256",
          "name": "",
          "type": "uint256"
        }
      ],
      "name": "allBlacklistedIPHashes",
      "outputs": [
        {
          "internalType": "bytes32",
          "name": "",
          "type": "bytes32"
        }
      ],
      "stateMutability": "view",
      "type": "function",
      "constant": true
    },
    {
      "inputs": [
        {
          "internalType": "bytes32",
          "name": "",
          "type": "bytes32"
        }
      ],
      "name": "blacklistedIPs",
      "outputs": [
        {
          "internalType": "bool",
          "name": "",
          "type": "bool"
        }
      ],
      "stateMutability": "view",
      "type": "function",
      "constant": true
    },
    {
      "inputs": [
        {
          "internalType": "bytes32",
          "name": "",
          "type": "bytes32"
        }
      ],
      "name": "devices",
      "outputs": [
        {
          "internalType": "bytes32",
          "name": "ipHash",
          "type": "bytes32"
        },
        {
          "internalType": "bytes32",
          "name": "imeiHash",
          "type": "bytes32"
        },
        {
          "internalType": "bytes32",
          "name": "macHash",
          "type": "bytes32"
        },
        {
          "internalType": "bool",
          "name": "isBlacklisted",
          "type": "bool"
        }
      ],
      "stateMutability": "view",
      "type": "function",
      "constant": true
    },
    {
      "inputs": [
        {
          "internalType": "bytes32",
          "name": "ipHash",
          "type": "bytes32"
        },
        {
          "internalType": "bytes32",
          "name": "imeiHash",
          "type": "bytes32"
        },
        {
          "internalType": "bytes32",
          "name": "macHash",
          "type": "bytes32"
        }
      ],
      "name": "registerDevice",
      "outputs": [],
      "stateMutability": "nonpayable",
      "type": "function"
    },
    {
      "inputs": [
        {
          "internalType": "bytes32",
          "name": "imeiHash",
          "type": "bytes32"
        }
      ],
      "name": "blacklistDevice",
      "outputs": [],
      "stateMutability": "nonpayable",
      "type": "function"
    },
    {
      "inputs": [
        {
          "internalType": "bytes32",
          "name": "imeiHash",
          "type": "bytes32"
        }
      ],
      "name": "isDeviceBlacklisted",
      "outputs": [
        {
          "internalType": "bool",
          "name": "",
          "type": "bool"
        }
      ],
      "stateMutability": "view",
      "type": "function",
      "constant": true
    },
    {
      "inputs": [
        {
          "internalType": "bytes32",
          "name": "ipHash",
          "type": "bytes32"
        }
      ],
      "name": "isIPBlacklisted",
      "outputs": [
        {
          "internalType": "bool",
          "name": "",
          "type": "bool"
        }
      ],
      "stateMutability": "view",
      "type": "function",
      "constant": true
    },
    {
      "inputs": [],
      "name": "getAllBlacklistedIPs",
      "outputs": [
        {
          "internalType": "bytes32[]",
          "name": "",
          "type": "bytes32[]"
        }
      ],
      "stateMutability": "view",
      "type": "function",
      "constant": true
    },
    {
      "inputs": [
        {
          "internalType": "bytes32",
          "name": "imeiHash",
          "type": "bytes32"
        }
      ],
      "name": "getDeviceDetails",
      "outputs": [
        {
          "internalType": "bytes32",
          "name": "",
          "type": "bytes32"
        },
        {
          "internalType": "bytes32",
          "name": "",
          "type": "bytes32"
        },
        {
          "internalType": "bytes32",
          "name": "",
          "type": "bytes32"
        },
        {
          "internalType": "bool",
          "name": "",
          "type": "bool"
        }
      ],
      "stateMutability": "view",
      "type": "function",
      "constant": true
    }
  ],
  "bytecode": "0x608060405234801561001057600080fd5b506109b2806100206000396000f3fe608060405234801561001057600080fd5b50600436106100935760003560e01c8063a89ad68611610066578063a89ad68614610130578063c5c400de14610160578063cb2d336e14610193578063f2b5822f146101c3578063f8ef515f146101e157610093565b8063091f1bff146100985780631d8fc524146100c8578063295b670f146100e45780637900438b14610114575b600080fd5b6100b260048036038101906100ad9190610643565b610214565b6040516100bf9190610829565b60405180910390f35b6100e260048036038101906100dd9190610643565b610234565b005b6100fe60048036038101906100f991906106bb565b610355565b60405161010b9190610844565b60405180910390f35b61012e6004803603810190610129919061066c565b610379565b005b61014a60048036038101906101459190610643565b61044f565b6040516101579190610829565b60405180910390f35b61017a60048036038101906101759190610643565b610479565b60405161018a949392919061085f565b60405180910390f35b6101ad60048036038101906101a89190610643565b6104b6565b6040516101ba9190610829565b60405180910390f35b6101cb61053d565b6040516101d89190610807565b60405180910390f35b6101fb60048036038101906101f69190610643565b610595565b60405161020b949392919061085f565b60405180910390f35b60016020528060005260406000206000915054906101000a900460ff1681565b6000801b60008083815260200190815260200160002060010154141561028f576040517f08c379a0000000000000000000000000000000000000000000000000000000008152600401610286906108a4565b60405180910390fd5b600160008083815260200190815260200160002060030160006101000a81548160ff02191690831515021790555060008060008381526020019081526020016000206000015490506001600082815260200190815260200160002060009054906101000a900460ff1661035157600180600083815260200190815260200160002060006101000a81548160ff02191690831515021790555060028190806001815401808255809150506001900390600052602060002001600090919091909150555b5050565b6002818154811061036557600080fd5b906000526020600020016000915090505481565b6000801b60008084815260200190815260200160002060010154146103d3576040517f08c379a00000000000000000000000000000000000000000000000000000000081526004016103ca906108c4565b60405180910390fd5b60405180608001604052808481526020018381526020018281526020016000151581525060008084815260200190815260200160002060008201518160000155602082015181600101556040820151816002015560608201518160030160006101000a81548160ff021916908315150217905550905050505050565b60006001600083815260200190815260200160002060009054906101000a900460ff169050919050565b60006020528060005260406000206000915090508060000154908060010154908060020154908060030160009054906101000a900460ff16905084565b60008060001b600080848152602001908152602001600020600101541415610513576040517f08c379a000000000000000000000000000000000000000000000000000000000815260040161050a906108a4565b60405180910390fd5b60008083815260200190815260200160002060030160009054906101000a900460ff169050919050565b6060600280548060200260200160405190810160405280929190818152602001828054801561058b57602002820191906000526020600020905b815481526020019060010190808311610577575b5050505050905090565b60008060008060008060008781526020019081526020016000206040518060800160405290816000820154815260200160018201548152602001600282015481526020016003820160009054906101000a900460ff161515151581525050905080600001518160200151826040015183606001519450945094509450509193509193565b6000813590506106288161094e565b92915050565b60008135905061063d81610965565b92915050565b60006020828403121561065557600080fd5b600061066384828501610619565b91505092915050565b60008060006060848603121561068157600080fd5b600061068f86828701610619565b93505060206106a086828701610619565b92505060406106b186828701610619565b9150509250925092565b6000602082840312156106cd57600080fd5b60006106db8482850161062e565b91505092915050565b60006106f08383610769565b60208301905092915050565b6000610707826108f4565b610711818561090c565b935061071c836108e4565b8060005b8381101561074d57815161073488826106e4565b975061073f836108ff565b925050600181019050610720565b5085935050505092915050565b6107638161092e565b82525050565b6107728161093a565b82525050565b6107818161093a565b82525050565b600061079460108361091d565b91507f446576696365206e6f7420666f756e64000000000000000000000000000000006000830152602082019050919050565b60006107d460198361091d565b91507f44657669636520616c72656164792072656769737465726564000000000000006000830152602082019050919050565b6000602082019050818103600083015261082181846106fc565b905092915050565b600060208201905061083e600083018461075a565b92915050565b60006020820190506108596000830184610778565b92915050565b60006080820190506108746000830187610778565b6108816020830186610778565b61088e6040830185610778565b61089b606083018461075a565b95945050505050565b600060208201905081810360008301526108bd81610787565b9050919050565b600060208201905081810360008301526108dd816107c7565b9050919050565b6000819050602082019050919050565b600081519050919050565b6000602082019050919050565b600082825260208201905092915050565b600082825260208201905092915050565b60008115159050919050565b6000819050919050565b6000819050919050565b6109578161093a565b811461096257600080fd5b50565b61096e81610944565b811461097957600080fd5b5056fea26469706673582212201d28bfd719a7d6f845471999d456746940bd874098f616e2868a6b6b0ab3955864736f6c63430008000033",
  "immutableReferences": {},
  "source": "// SPDX-License-Identifier: MIT\n\npragma solidity ^0.8.0;\n\ncontract SmartIdentity {\n    struct Device {\n        bytes32 ipHash;\n        bytes32 imeiHash;\n        bytes32 macHash;\n        bool isBlacklisted;\n    }\n\n    // Mapping to store devices based on their IMEI hash\n    mapping(bytes32 => Device) public devices;\n\n    // Mapping to store blacklisted IPs\n    mapping(bytes32 => bool) public blacklistedIPs;\n\n    // Array to keep track of all blacklisted IPs (hashes)\n    bytes32[] public allBlacklistedIPHashes;\n\n    // Function to register a device with IP, IMEI, and MAC hash\n    function registerDevice(bytes32 ipHash, bytes32 imeiHash, bytes32 macHash) public {\n        require(devices[imeiHash].imeiHash == 0, \"Device already registered\");\n\n        devices[imeiHash] = Device({\n            ipHash: ipHash,\n            imeiHash: imeiHash,\n            macHash: macHash,\n            isBlacklisted: false\n        });\n    }\n\n    // Function to blacklist a device by its IMEI hash\n    function blacklistDevice(bytes32 imeiHash) public {\n        require(devices[imeiHash].imeiHash != 0, \"Device not found\");\n\n        devices[imeiHash].isBlacklisted = true;\n        \n        // Add the IP to the blacklisted IPs mapping and array if not already present\n        bytes32 ipHash = devices[imeiHash].ipHash;\n        if (!blacklistedIPs[ipHash]) {\n            blacklistedIPs[ipHash] = true;\n            allBlacklistedIPHashes.push(ipHash);\n        }\n    }\n\n    // Function to check if a device is blacklisted\n    function isDeviceBlacklisted(bytes32 imeiHash) public view returns (bool) {\n        require(devices[imeiHash].imeiHash != 0, \"Device not found\");\n        return devices[imeiHash].isBlacklisted;\n    }\n\n    // Function to verify if an IP is blacklisted\n    function isIPBlacklisted(bytes32 ipHash) public view returns (bool) {\n        return blacklistedIPs[ipHash];\n    }\n\n    // Function to retrieve all blacklisted IPs\n    function getAllBlacklistedIPs() public view returns (bytes32[] memory) {\n        return allBlacklistedIPHashes;\n    }\n\n    // Function to get device details\n    function getDeviceDetails(bytes32 imeiHash) public view returns (bytes32, bytes32, bytes32, bool) {\n        Device memory device = devices[imeiHash];\n        return (device.ipHash, device.imeiHash, device.macHash, device.isBlacklisted);\n    }\n}\n",
  "sourcePath": "/Users/mariakhan/Desktop/WhiteWash/White_Wash_Attack/smartId-contracts/contracts/SmartIdentity.sol",
  "compiler": {
    "name": "solc",
    "version": "0.8.0+commit.c7dfd78e.Emscripten.clang"
  },
  "schemaVersion": "3.4.16",
  "updatedAt": "2025-01-25T09:31:05.522Z",
  "networkType": "ethereum",
  "devdoc": {
    "kind": "dev",
    "methods": {},
    "version": 1
  },
  "userdoc": {
    "kind": "user",
    "methods": {},
    "version": 1
  }
}